:1000000000000102020303030304040404040404C3
:100010000405050505050505050505050505050591
:100020000506060606060606060606060606060671
:100030000606060606060606060606060606060660
:100040000607070707070707070707070707070741
:100050000707070707070707070707070707070730
:100060000707070707070707070707070707070720
:100070000707070707070707070707070707070710
:1000800007080808080808080808080808080808F1
:1000900008080808080808080808080808080808E0
:1000A00008080808080808080808080808080808D0
:1000B00008080808080808080808080808080808C0
:1000C00008080808080808080808080808080808B0
:1000D00008080808080808080808080808080808A0
:1000E0000808080808080808080808080808080890
:1000F0000808080808080808080808080808080880
:100100000809090909090909090909090909090960
:10011000090909090909090909090909090909094F
:10012000090909090909090909090909090909093F
:10013000090909090909090909090909090909092F
:10014000090909090909090909090909090909091F
:10015000090909090909090909090909090909090F
:1001600009090909090909090909090909090909FF
:1001700009090909090909090909090909090909EF
:1001800009090909090909090909090909090909DF
:1001900009090909090909090909090909090909CF
:1001A00009090909090909090909090909090909BF
:1001B00009090909090909090909090909090909AF
:1001C000090909090909090909090909090909099F
:1001D000090909090909090909090909090909098F
:1001E000090909090909090909090909090909097F
:1001F000090909090909090909090909090909096F
:10020000090A0A0A0A0A0A0A0A0A0A0A0A0A0A0A4F
:100210000A0A0A0A0A0A0A0A0A0A0A0A0A0A0A0A3E
:100220000A0A0A0A0A0A0A0A0A0A0A0A0A0A0A0A2E
:100230000A0A0A0A0A0A0A0A0A0A0A0A0A0A0A0A1E
:100240000A0A0A0A0A0A0A0A0A0A0A0A0A0A0A0A0E
:100250000A0A0A0A0A0A0A0A0A0A0A0A0A0A0A0AFE
:100260000A0A0A0A0A0A0A0A0A0A0A0A0A0A0A0AEE
:100270000A0A0A0A0A0A0A0A0A0A0A0A0A0A0A0ADE
:100280000A0A0A0A0A0A0A0A0A0A0A0A0A0A0A0ACE
:100290000A0A0A0A0A0A0A0A0A0A0A0A0A0A0A0ABE
:1002A0000A0A0A0A0A0A0A0A0A0A0A0A0A0A0A0AAE
:1002B0000A0A0A0A0A0A0A0A0A0A0A0A0A0A0A0A9E
:1002C0000A0A0A0A0A0A0A0A0A0A0A0A0A0A0A0A8E
:1002D0000A0A0A0A0A0A0A0A0A0A0A0A0A0A0A0A7E
:1002E0000A0A0A0A0A0A0A0A0A0A0A0A0A0A0A0A6E
:1002F0000A0A0A0A0A0A0A0A0A0A0A0A0A0A0A0A5E
:100300000A0A0A0A0A0A0A0A0A0A0A0A0A0A0A0A4D
:100310000A0A0A0A0A0A0A0A0A0A0A0A0A0A0A0A3D
:100320000A0A0A0A0A0A0A0A0A0A0A0A0A0A0A0A2D
:100330000A0A0A0A0A0A0A0A0A0A0A0A0A0A0A0A1D
:100340000A0A0A0A0A0A0A0A0A0A0A0A0A0A0A0A0D
:100350000A0A0A0A0A0A0A0A0A0A0A0A0A0A0A0AFD
:100360000A0A0A0A0A0A0A0A0A0A0A0A0A0A0A0AED
:100370000A0A0A0A0A0A0A0A0A0A0A0A0A0A0A0ADD
:100380000A0A0A0A0A0A0A0A0A0A0A0A0A0A0A0ACD
:100390000A0A0A0A0A0A0A0A0A0A0A0A0A0A0A0ABD
:1003A0000A0A0A0A0A0A0A0A0A0A0A0A0A0A0A0AAD
:1003B0000A0A0A0A0A0A0A0A0A0A0A0A0A0A0A0A9D
:1003C0000A0A0A0A0A0A0A0A0A0A0A0A0A0A0A0A8D
:1003D0000A0A0A0A0A0A0A0A0A0A0A0A0A0A0A0A7D
:1003E0000A0A0A0A0A0A0A0A0A0A0A0A0A0A0A0A6D
:1003F0000A0A0A0A0A0A0A0A0A0A0A0A0A0A0A0A5D
:00000001FF
